:020000040800F2
:10000000000400201D8100081F8100081F810008D6
:100010001F8100081F8100081F8100081F81000840
:100020001F8100081F8100081F810008C9A801085E
:100030001F8100081F8100081F8100081F81000820
:100040001F8100081F810008D9DC010845DD010877
:100050001F8100081F81000889B90108B1B9010892
:10006000D9B9010801BA010829BA010821C4010857
:1000700049C4010879C40108A9C40108D9C4010808
:1000800001C5010831C50108A1C201081F8100088E
:100090001F8100081F8100081F81000851BA010854
:1000A0001F8100081F8100081F8100081F810008B0
:1000B00025BB01081F8100081F8100081F8100085F
:1000C0001F8100081F8100081F8100081F81000890
:1000D0001F8100081F8100081F8100081F81000880
:1000E000B5BA01087DDD01081F8100081F810008E5
:1000F0001F8100081F8100081F81000861C50108D9
:100100001F8100081F8100081F8100081F8100084F
:100110001F8100081F8100081F8100081F8100083F
:1001200091C50108B9C50108E9C5010819C601084A
:1001300049C601081F8100081F8100081F810008AF
:100140001F8100081F8100081F810008ADD8010829
:1001500071C60108A1C60108D1C601081F810008A7
:1001600015CB010845CC01081F8100081F8100083C
:100170001F8100081F8100081F8100081F810008DF
:100180001F8100081F8100081F8100081F810008CF
:100190001F8100081F8100081F8100081F810008BF
:1001A0001F8100081F8100081F8100081F810008AF
:1001B0001F8100081F8100081F8100081F8100089F
:1001C0001F8100081F8100081F8100081F8100088F
:1001D0001F8100081F8100081F8100081F8100087F
:1080000072B6374880F30888364880F309883648C6
:108010003649086040F20000CCF200004EF63471A0
:10802000CEF200010860BFF34F8FBFF36F8F40F2B5
:108030000000C0F2F0004EF68851CEF20001086058
:10804000BFF34F8FBFF36F8F4FF00000E1EE100AC8
:108050004EF63C71CEF200010860062080F31488D1
:10806000BFF36F8F12F00CF811F062FA4FF0553039
:108070001F491B4A91423CBF41F8040BFAE71D49D6
:10808000184A91423CBF41F8040BFAE71A491B4ACF
:108090001B4B9A423EBF51F8040B42F8040BF8E721
:1080A00000201849184A91423CBF41F8040BFAE7F6
:1080B00011F0ECFF11F0E6FF144C154DAC4203DA61
:1080C00054F8041B8847F9E70BF004FB114C124DE0
:1080D000AC4203DA54F8041B8847F9E711F0D4BF27
:1080E00000040020002400200000000808ED00E04B
:1080F0000000002000040020C40602080024002024
:10810000EC2F0020F02F0020149C0020008000089D
:1081100000800008008000080080000870E700F080
:1081200000F8FEE72DE9F04F2DED108AC1F80CD0D4
:10813000C3689D46BDEC108ABDE8F08F002383F331
:1081400011882846A047002012F0C0FAFEE712F07E
:1081500017FA00DFFEE7000053B94AB9002908BF4B
:1081600000281CBF4FF0FF314FF0FF3000F062B924
:10817000ADF1080C6DE904CE00F006F8DDF804E07E
:10818000DDE9022304B070472DE9F047089F15464A
:1081900004468C461E46002B40F0CB808A4248D9CC
:1081A000B2FA82F149B1C1F120030CFA01FC20FAC4
:1081B00003F38D4043EA0C0C8C404FEA154EA8B2F5
:1081C000BCFBFEF8230C0EFB18CC08FB00F943EABD
:1081D0000C43994529D9EB1808F1FF3204D299458F
:1081E00002D9A8F102022B44A3EB0903A4B2B3FB0A
:1081F000FEFC0EFB1C330CFB00F044EA0344A042DF
:1082000015D92C190CF1FF3304D2A04202D9ACF1DC
:1082100002032C44241A43EA02401FB1CC4000233D
:108220003C607B603146BDE8F0874246DCE7634650
:10823000F0E7002A73D0B2FA82F3DBB31E46C6F130
:10824000200302FA06F521FA03F2B14020FA03F303
:108250000B434FEA154E00FA06F4B2FBFEF1A8B24A
:108260000EFB112C1A0C01FB00F842EA0C4290455F
:1082700057D9AA1801F1FF3C04D2904502D9A1F1C7
:10828000020C2A44A2EB08029BB2B2FBFEF10EFBE9
:108290001122484343EA0243984244D9EB1801F1C2
:1082A000FF3203D2984201D98A1E2B441B1A42EA9C
:1082B0000C4201E08B1A01224FEA154EA8B2B3FB23
:1082C000FEFC210C0EFB1C330CFB00F841EA0343BF
:1082D00098452AD9EB180CF1FF3104D2984502D900
:1082E000ACF102012B44A3EB0803A4B2B3FBFEFCE8
:1082F0000EFB1C330CFB00F044EA0344A04216D9E9
:108300002C190CF1FF3304D2A04202D9ACF10203C4
:108310002C44241A43EA0140314616467DE71F26C5
:108320008DE78C46AEE70A46C0E76146DBE7634669
:10833000EFE78B4206D917B90026304672E7C7E946
:108340000001F9E7B3FA83F686B98B4201D3824282
:1083500007D8841A61EB030301209C461FB900264D
:1083600060E73046FAE7C7E9004CF8E7C6F1200CB1
:10837000B34022FA0CF41C4320FA0CF521FA0CF35A
:10838000B14029434FEA144900FA06F5B3FBF9F866
:108390001FFA84FE09FB18300B0C08FB0EFA43EAA7
:1083A00000439A4502FA06F240D9E31808F1FF307B
:1083B00004D29A4502D9A8F102002344A3EB0A0390
:1083C00089B2B3FBF9F809FB183308FB0EFE41EA4A
:1083D00003418E452CD9611808F1FF3304D28E4534
:1083E00002D9A8F10203214443EA0040A0FB02980D
:1083F000A1EB0E014145CE46434602D306D14D4581
:1084000004D2B9EB020E68EB04030138002FA6D0AA
:10841000B5EB0E0261EB030101FA0CFC22FA06F344
:108420004CEA0303F140C7E9003198E74046C5E74D
:108430004346D9E7704700BF034613F8012B002AD3
:10844000FBD1181A0138704700000000000000003E
:1084500001F0FF01102A2BDB10F0070F08D010F8F5
:10846000013B013A8B422DD010F0070F42B3F6D1F9
:10847000F0B441EA012141EA014122F007047FF012
:1084800000070023F0E80256083C85EA010586EA69
:10849000010685FA47F5A3FA87F586FA47F6A5FAA5
:1084A00087F68EB9EED1F0BC01F0FF0102F00702B1
:1084B00032B110F8013B013A83EA010313B1F8D15C
:1084C0000020704701387047002D06BF354603383D
:1084D000073815F0010F07D1013015F4807F02BF76
:1084E000013015F4C03F0130F0BC0138704700BFC7
:1084F000F0B587B00F464508144915480593002488
:10850000164612F0F7FC059B124A214640F2E7306E
:10851000E3FB02014FF47A720023FFF71DFE019482
:10852000029000940A4833463A46294612F002FD6A
:10853000044640B1064812F0EBFC013414BF4FF082
:10854000FF306FF0010007B0F0BD00BF58F5010823
:10855000389B0020A086010070B584B004460E460A
:10856000134814490393154612F0C4FC124A039BA6
:1085700040F2E7300021E3FB02014FF47A7200235E
:10858000FFF7EAFD2B46009032460948610812F0D9
:10859000EFFC50B10390064812F0BAFC039B013384
:1085A00014BF4FF0FF306FF0010004B070BD00BF8A
:1085B000389B002058F50108A086010008B5104836
:1085C00000224FF4807114F033F900224FF400714F
:1085D0000C4814F02DF94FF47A7012F083F8084823
:1085E00040F206224FF4807114F022F9BDE80840F1
:1085F000044840F206224FF4007114F019B900BF8C
:10860000000002400008024008B5FFF7D7FF054B05
:108610004FF48061198318462022BDE8084014F009
:1086200007B900BF0004024030B583B049BA05461F
:108630001446ADF80410642301A90222A220FFF71A
:1086400057FF6423A2B22946A220FFF785FF03B09B
:1086500030BD00BFF0B515468BB001220E4607466F
:108660004FF48061184814F0E3F8174A4FF4806320
:108670005383F5B106F01F04C4F12004AC4228BFB7
:108680002C4673BA394622460DF10600ADF8043087
:1086900016F0B2F9A21C642392B201A9A220FFF73E
:1086A00027FF4FF4FA7012F01DF82D1B27442644C3
:1086B000E0D1054B4FF4806119832022184614F055
:1086C000B7F80BB0F0BD00BF0004024010B588B091
:1086D00020220021684616F043F90024214620227A
:1086E00068462034FFF7B6FFB4F5806FF6D108B0C6
:1086F00010BD00BF704700BF302383F31188134BB8
:10870000082208B31A83322300BF013B9BB2002B1F
:10871000FAD103F1804303F5013320221A83322377
:1087200000BF013B9BB2002BFAD103F1804303F55C
:10873000013320225A83322300BF013B9BB2002B1E
:10874000FAD183F3118870475A83DCE700040240B2
:10875000234B98423AD00FD800F13F4303F57E03F4
:10876000072B37D81F4BC318062B37D8DFE803F089
:10877000202C2A28262422001B4B984228D000F1C6
:108780004043A3F50233052B24D8184BC318042B00
:1087900022D8DFE803F0090705030B000E2070471D
:1087A0000D2070470C2070470B2070470F2070473A
:1087B000012070470720704706207047052070474A
:1087C000042070470320704702207047082070473C
:1087D00009207047FF2070470A207047002070472B
:1087E00000040240FFFFFDBF01040240FFF7FDBF90
:1087F0002DE9F04F074685B00C46A0B9574B04222F
:108800005A83142300BF013B9BB2002BFAD1534B78
:1088100004221A83142300BF013B9BB2002BFAD120
:108820000120FFF769FF4FF4346011F09FFC012332
:108830004FF0000B03FA07FA0323CDF804B00093BE
:108840005D460394464E47494748484ADFF81CB105
:10885000B046012312F0F8FA4FF0000902962E46B6
:1088600045464FF0000812E0012303FA08F1009B8F
:10887000002A08BF46F00106032B49EA01022FD067
:108880005FFA82F908F10108B8F1060F1AD03BF837
:10889000022B39465FFA88F002F07CFD39465FFA18
:1088A00088F002F05DFE35F8022B0AEA0202002889
:1088B000DAD108F10108824218BF46F00106B8F18A
:1088C000060FE4D1009B032B3546029E0ED0019B80
:1088D0004B4510D0002005B0BDE8F04FFFF70CBFAE
:1088E000019B43EA0102D3B20193CBE70223009339
:1088F000002DA7D1EEE7009B03F1FF3B1BF0FF0328
:108900000093F5D1AB46039C3546BBF1000FE1D097
:10891000174BDDF800801749019E01221A700DE007
:1089200010B90A8822430A80234308F10108B8F1EC
:10893000060F25F8023C01F10201CBD035F8023BCD
:1089400046FA08F2D20704EA0300E9D410B10A8813
:1089500022430A8023EA0403E7E700BF000C024039
:108960009475002000240020849A0020F02F00201D
:10897000FC2F0020887500202DE9F04F85B00025E0
:108980005448019501224FF400510295039513F0CC
:108990004FFF50494F48DFF85CB1DFF85CA14FF45E
:1089A000005320220B83114613F042FF4A48012254
:1089B000082113F03DFF48480122202113F038FF21
:1089C00001224648042113F033FF444A0423538311
:1089D0000BF118072C46A94601264FF003085BF857
:1089E000043B03F00F01B3F1FF3F4FF0030206FA1F
:1089F00001F123F00F000BD013F01AFF5BF8043CD9
:108A000003F00F02103223F00F0106FA02F28A611E
:108A10001846FFF79DFEFF2827D0A0F10A0309287A
:108A200002B21BB298BF02EB420203EB430308FA07
:108A300003F396BF08FA02F21D4349EA0209AAFBB2
:108A40000432930803EB430302F0FC02A4EB43035C
:108A500010326A44DBB203EB8303984052F80C3CBB
:108A60000134184342F80C0CE4B25F45B7D11C4BFB
:108A7000019A03999A621962029A1A485D6100216B
:108A80005A62C3F8189012F0BFF9174A536843F4BA
:108A90008033052553600024E0B200210134FFF744
:108AA000A7FE102CF8D1013D15F0FF05F3D10F4AB8
:108AB0000F4B158055809580D580158155811D807F
:108AC0005D809D80DD801D815D8105B0BDE8F04F3A
:108AD00002F046BC0008024000040240000C0240C4
:108AE00000240020849A0020003801409475002062
:108AF000887500202C240020ABAAAAAA70B584B0E7
:108B00002549264E0C2201A815F076FF2449254858
:108B10000C2215F071FF244B00251D805D809D8087
:108B2000DD801D815D81357001242146E8B201356B
:108B3000FFF75EFE6400102DA4B2F6D102F002FE33
:108B4000154B1A4903F10C041A8831F8020B024044
:108B500023F8022BA342F7D1124B154C154803F111
:108B60000C0C198834F8025B30F8022B29430A43B5
:108B700023F8022B6345F4D10C2201A9064815F015
:108B8000DFFE04460AF044FD3078002C18BF40F0A8
:108B9000010004B070BD00BF2C990020FC2F002004
:108BA000389900200030002088750020D4FA010890
:108BB000F43A0020343A002030B5204887B012F053
:108BC00031F91F484022082113F032FE1C48402290
:108BD000202113F02DFE1B484022042113F028FE13
:108BE000194A4FF400535383302383F311881648F6
:108BF0000222052113F098FE002383F31188134C01
:108C00000FCCEC46ACE80F0094E803008CE80300BE
:108C10006C46012554F8040B00F00F01431C4FF083
:108C2000400205FA01F120F00F0001D013F000FE20
:108C300006AB9C42EED107B030BD00BF849A002045
:108C400000040240000C02400008024024F5010824
:108C50002DE9F04F4FF45772324D02FB00F805EB4F
:108C60000804064683B00021204615F079FE2E4BFD
:108C700001949B5D03F0030343F48A6325F80830F5
:108C8000A37823F00F0343F00103A370274B06EBF7
:108C9000460203EB821EEF1DD72303FB06F1474478
:108CA0004046002688467146BE4600228A4608EBAA
:108CB000061B0BEB02033AF8024F05EB8303C4F3E8
:108CC000820993F804C09F79B9F1040F64F3010C91
:108CD00069F3071708BF640983F804C09F7108BFD0
:108CE0000EF822400132102AE3D10136062E0EF191
:108CF000400E01F12001D8D1019C804609F0C8FF47
:108D000050B120464FF4577208F2211101F092FF42
:108D1000012003B0BDE8F08F05490F200AF080FD67
:108D2000EFE700BF143000201425002036F70108BB
:108D300004003434F8B550B10020FFF789FF01205A
:108D4000FFF786FFBDE8F8400220FFF781BF054628
:108D5000012140F63E3015F08FFC0446262140F6F6
:108D60003E3207460AF078FD63782F4A2F4C2F4891
:108D7000022B96BF4FF457712B4601FB0341137032
:108D80002B4B88BF2146196040F6142207F22111AF
:108D900015F032FE00234FF4577000FB03F500FB83
:108DA000034C625D910705D1224E16F803E06EF385
:108DB00001026255615DC1F385023F3202F03F025C
:108DC000272A03D9142262F3870161559CF80120F8
:108DD00002F13F0101F03F0126294FF0040161F348
:108DE000050201D98CF8012000FB03F2A518A25856
:108DF00012F47C2F0FD16978AA7801F0030E01F0EC
:108E00003F0C22F00F02C1F383014CEA8E1C0A438F
:108E100085F801C0AA700133032BBED13846BDE8E6
:108E2000F84015F067BC00BF12300020143000205D
:108E30004424002014250020014B1868704700BF0F
:108E400044240020014B1878704700BF12300020E6
:108E500000B583B002288DF8070030D80B461B49B7
:108E6000C2B20878904203D1F3B9012003B000BD2B
:108E700017480A7000934FF45771164B01FB02021A
:108E80001A6003F009F901F0C5FE13490F200AF03A
:108E9000C7FC012211460DF1070001F0CBFE03F0E3
:108EA00003F9009B002BE0D00DF060F950B10FF0FA
:108EB0006DFE0A490A4B086086221A70D5E7002029
:108EC00003B000BD0DF006F9F1E700BF123000203D
:108ED0001430002044240020040034340C300020DE
:108EE0001030002002281FD8F8B58C1840F6142E38
:108EF000744501DD0020F8BD0D46064600211846E8
:108F0000174615F02DFD094BC5F15C024FF4577162
:108F100001FB0651D2B2B4F5577FD8BF3A46194487
:108F200015F06AFD0120F8BD0020704714300020C4
:108F30002DE9F04F85B002289DF838809DF83C500F
:108F400050D802294ED8272A4CD817461A4603462D
:108F5000002D4BD14FF0D709DFF8E0A0109E09FBA0
:108F600000F983460B46E9B20391002402E0013484
:108F7000102C31D030684FF0010C09EB05110CFAC0
:108F800004FC21441CEA000F0AEB810107F03F0EAC
:108F9000EDD003F0030040EA8E0002F03F0E91F89E
:108FA00006C040EA0E2040EA883088802CF00F0C82
:108FB000C8F3830040EA0C0088711F4909785945BD
:108FC000D5D1E1B2039802920134019301F074FD0E
:108FD000102C029A019BCDD10135062D06F1040615
:108FE000C1D124E0002005B0BDE8F08F09B301F045
:108FF000030007F03F0702F03F024FF4577440EAC6
:10900000870004FB03F340EA02200C4C40EA88305E
:10901000E0521C44C8F38308A378109823F00F0390
:1090200048EA03031822FF21A37015F099FC0120E0
:10903000D9E70846D7E700BF1230002014300020DF
:109040002DE9F0410478022C88B01AD88378052BDA
:109050001F4616D8C3780F2B984612D800224178A5
:109060000392049205920692ADF81C208DF81E2002
:10907000027903461046032903D8DFE801F01B28D4
:109080006E06002008B0BDE8F081D72304FB03F38F
:109090003D4A03EB0713434402EB8302D38803F0FA
:1090A0000F0343F05003D380384B1B78A34266D0A4
:1090B0000120E7E7D7223B0102FB0433324A434455
:1090C00002EB8303DA8802F00F02DA80ECE7132860
:1090D0000546D6D899795A79019301F03F0102F0FB
:1090E0003F0242EA8112D979274E42EA0132ADF8B5
:1090F0000C201A7AC1F3011141EA82018DF80E1099
:10910000082203F109010DF10F0015F075FC019B18
:10911000082203F111010DF1170015F06DFC05EBAC
:10912000C5004FF4577305EB400003FB04003044C7
:1091300003A9132200F5C27015F05EFCD72304FBCF
:1091400003F303EB0713434406EB830303219A79EC
:10915000DD7161F307129A71A6E72C2891D8D72305
:1091600004FB03F3084A03EB0713434402EB8303B6
:1091700004219A79D87161F307129A7194E74146F4
:10918000384601F099FC93E714300020123000209B
:109190000378022B31D84278052A2ED8C1780529C8
:1091A0002BD810B5847890F804E044EA0E0CBCF19A
:1091B0000F0F26D890F805C0BCF1130F21D8807985
:1091C00006281ED8F8B18A4219D002F0070201F031
:1091D000070142EAC40241EACE01124C0CEB4C0CEE
:1091E0004FF4577E0EFB03C3234483F8002383F818
:1091F000011383F80203012010BD0020704774455D
:10920000E3D1002010BD4FF457720CEB4C0C054914
:1092100002FB03C303F540735A18C8545070907092
:10922000E9E700BF14300020022801D90020704770
:1092300010B50E4A82B04FF45771019001FB002423
:1092400009F026FD019B58B14FF4577202FB03F35E
:10925000204603F2211101F0EDFC012002B010BD07
:1092600003490F200AF0DCFA019BEDE714300020DF
:1092700004003434022801D900207047FFF7E8BC0D
:10928000134A1378D9070CD51248818813F0020FBE
:1092900001F4806104D041B923F0020313707047D8
:1092A00001B9704743F0020313700389590707D4CB
:1092B0001A0709D4DB06F4D501210220FFF7C8BD47
:1092C00001210020FFF7C4BD01210846FFF7C0BD02
:1092D0001130002000300020022801D81C2901D9BB
:1092E0000020704738B5084B15464FF4577202FB03
:1092F00000300C461E22002115F032FB2246294682
:1093000015F07AFB012038BD5033002008B545F236
:109310002F23984208D9A0F5FC43103B022B0ED80E
:109320004B799BB9002008BD45F21F23984206D90E
:10933000094A4979137821B923F0010313700120F8
:1093400008BD43F0010313700120F9E71038012133
:10935000C0B2FFF77DFDE5E71130002008B50FF042
:1093600015FC034B034901221A70086008BD00BFB9
:10937000103000200C30002008B5184B186800B9D8
:1093800008BD0FF0A5FBB0F5FA7FF9D91449134BCE
:109390000A78501C02F00F02062A087016D94FF006
:1093A000000C104881F800C008221721C3F800C043
:1093B0000AF052FA0B480378032B0CD90CF0D6FEB6
:1093C0000028DDD1BDE808400CF0C0BE0FF0DEFB88
:1093D000024B186008BD0CF029F9EFE70C300020B3
:1093E0001030002048990020104B187800B97047C1
:1093F000C043002240F30000114610B5C0B20CF08B
:10940000DDFB0A4B93F900201B78002A00DB10BD1E
:10941000074A08491278DB4343F30003DBB2885C58
:10942000BDE810401A4619460CF0B2BB10300020BF
:109430001230002064F50108F0B5254B5C7E9B7E60
:1094400083B044EA0324042C224B01933CDD0646FE
:1094500021480F46251F0346002203E00132AA429D
:10946000634631D019789DF804E0714503F1010C91
:10947000F4D193F801E09DF805108E45EED19CF8EB
:1094800001109DF806309942E8D19CF802109DF831
:1094900007309942E2D1A11E9142134614DD02EB3E
:1094A000000C02E001338B420EDA1CF801EBBEF136
:1094B000C00FF7D19CF80000C028F3D1023301207F
:1094C00032803B8003B0F0BD002003B0F0BD00BF90
:1094D00028290020050109045C000208F0B5414C70
:1094E0000546208883B02A0A40B9DFF800C19CF8FD
:1094F00019009CF81AC040EA0C202080032A27D0CB
:10950000222A0DD0022A09D1019201F0F7F9019A1D
:1095100000282AD0344C2378002B2FD003B0F0BD84
:109520000029FBD1314A324D1D600193517E927E5C
:1095300041EA022601F0E2F90028EFD02D49019B13
:109540000A681746002A30D01F60089B1E80E5E796
:10955000019301F0D3F90028E0D1EDB2EE2D019B8B
:10956000DCD11860089B1880D8E7204B42211A7183
:109570009970D870089B198003B0F0BD1E491F4830
:10958000FFF75AFF0028C9D0184A1C4B957E18884F
:109590001949537E098843EA052303445B1A180AD4
:1095A0000121537690762170B8E72488204615F083
:1095B00099F81049224608602946074615F01CFA1A
:1095C0000E4A019B1088221F9042BDDA0A4A118878
:1095D000A21E9142B8DA621A3818791815F00CFAFE
:1095E000019BB1E7323A0020303A002028290020C0
:1095F0005C000208283A00202C3A00202E3A002075
:1096000008B501F07BF918B9039B1860049B18801A
:1096100008BD00BF4378012B06D01BB98178C27A00
:1096200091420AD200207047837813B1027B9A429C
:10963000F8D90023437001207047012343700120B3
:10964000704700BF42780346032A06D8DFE802F0DD
:10965000152207028278F02A1DD9002070478278EF
:10966000017B91422BD2417B91422CD8C17A91420D
:1096700029D803214170012005E08278C17A914206
:10968000EBD801205870197C5A73521A22EAE27200
:109690009A7370478278197B91420CD2997B9142E0
:1096A00004D3197CC1F1E4018A4215DB597B914254
:1096B000D3D20020E7E700225A7001207047002231
:1096C000427000207047997B9142C6D90020D97B17
:1096D0009A730A445A737047022159700120F6E7C1
:1096E00000B50B1F83B09BB278B1A02B22D9A1F19A
:1096F000E003072B0FD801F0070101208840C0B21A
:1097000003B05DF804EB09F011B9A02B05D9A1F164
:10971000E003072B1BD903B000BDC9B20846019175
:109720000EF0E0FF0028F6D0019803B05DF804EBDE
:109730000FF0B0B8C9B2084601910EF0D3FF00286F
:10974000E9D1019803B05DF804EB0FF085B801F0A2
:10975000070101208840C0B203B05DF804EB09F0B6
:10976000F9B800BF10B5002282B0044604EB4201F4
:10977000CB78097953EA012307D10132042AF5D1C4
:1097800002B0BDE8104009F0BDB9191FA029A3F12E
:10979000E0000BD90728F0D803F007030120984018
:1097A000C0B2009209F0D6F8009AE6E7DBB218469C
:1097B000019200930EF096FF019A0028DDD00098E8
:1097C00000920FF067F8009AD7E700BF2DE9F04349
:1097D000044683B0FFF730FB6178E37B024604293F
:1097E00035D8DFE801F08503BDCE380003EBC300B8
:1097F00003EB40001518A67895F8851195F884516B
:1098000001F00F01890041EA951101EB4101B6EB2E
:10981000410F08DA05F03F05013D05EB4505B6EBC4
:10982000450FC0F27E8103EBC30103EB41055119E3
:1098300091F8863191F8851103F003031B0143EA87
:10984000111303EB4303B6EB430F80F22981002091
:1098500003B0BDE8F08303EBC30103EB41055119ED
:10986000A07891F8853191F8841103F00F039B00E3
:1098700043EA911303EB4303B0EB430FE7DC01F042
:109880003F01013901EB4101B0EB410FDFDA00216B
:1098900005F5C273617002EB03090F460026012132
:1098A00001FA07F8B44605EB46001044331D90F862
:1098B000871190F8880105EB430351EA0021134416
:1098C00005D093F8873118EA131340F01981013657
:1098D000042EE8D1BCF1000F40F02B817B1C032B40
:1098E0001F46DBD109F00EF94846FFF73BFF7CE04D
:1098F00003EBC30103EB41055319A17893F88431BD
:1099000003F03F0303EB4303B1EB430F9FDB4FF047
:109910000103637000260023012101FA06F79C462B
:1099200005EB43001044191D05EB410102EB010E4C
:1099300090F8871190F8880151EA002105D09EF82F
:10994000870100F00F00384262D10133042BE7D1C8
:10995000BCF1000F40F09C800136032EDBD144E0C7
:1099600003EBC30103EB41015018A57890F8863151
:109970009B0803EB4303B5EB430F5FDD03236370E9
:1099800065E703EBC30103EB4103D118A07891F81D
:109990008611890801EB4101B0EB410F3FF757AF4A
:1099A0000421617000270025012000FA07F8AE4667
:1099B00003EB450C9444291D03EB41019CF888619D
:1099C00050189CF8871151EA062104D090F88801BC
:1099D00018EA101027D10135042DE9D1BEF1000F8E
:1099E0004CD1791C03290F46DDD165795548627841
:1099F000A67930F81510013A0123B340022A94BF2A
:109A00001943994320F81510012003B0BDE8F083F5
:109A100006F0010001920093FFF762FE019A009B9D
:109A20004FF0010C91E707F0010001920093FFF75E
:109A300057FE019A009B4FF0010ECCE790F885315C
:109A400090F8840103F00F039B0043EA901303EBAB
:109A50004303B5EB430FBFF6FAAE00F03F00013809
:109A600000EB4000B5EB400FBFF6F1AE002301F56F
:109A7000C27163705018FFF775FEB6E7019200934C
:109A800009F040F8642010F02DFE019A009BA8E731
:109A9000009209F037F8642010F024FE009A5BE78A
:109AA000022363704FF000080026012101FA08F735
:109AB000304605EB46031344311D05EB410102EB33
:109AC000010C93F8871193F8883151EA032105D0EE
:109AD0009CF8883103F00F033B4209D10136042E74
:109AE000E7D1B0B908F10103032B9846DCD17CE73C
:109AF00008F001000092FFF7F3FD009A0120EDE766
:109B000007F001000092FFF7EBFD009A4FF0010C07
:109B1000DDE6009208F0F6FF642010F0E3FD009A05
:109B2000E0E7002300F5C27063701044FFF71AFEEF
:109B30005BE7009208F0E6FF642010F0D3FD009A86
:109B4000CCE600BF343A0020024B00221A605A6073
:109B50009A607047343A00204378012B06D01BB935
:109B60008278C37A9A420BD80020704783781BB959
:109B70000023437000207047027B9A42F4D9F7E734
:109B8000C27BB2FA82F2012352094370C2731846B3
:109B9000704700BF3A4A3B4BA2FB002099798008EE
:109BA00007EE101A07EE900AB8EEC77AF8EEE77AD9
:109BB000F4EEC77AF1EE10FA21DC1A7907EE102ADA
:109BC000B8EEC77A82B0F4EEC77AF1EE10FA1BDD78
:109BD0005B792D4A77EEC77A07EE103AD2ED026A2A
:109BE000B8EEC77AA6EEA77AFCEEC77ACDED017A79
:109BF0009DF804007F2828BF7F2002B07047D879E5
:109C00007F2828BF7F2070479A7807EE102AB8EE89
:109C1000C77AF4EEC77AF1EE10FA1CDC1A7807EE78
:109C2000102AB8EEC77AF4EEC77AF1EE10FA25DD05
:109C30005B78154A77EEC77A07EE103AD2ED006AE4
:109C4000B8EEC77AA6EEA77AFCEEC77ACDED017A18
:109C50009DF80400CEE7DB780B4A77EEC77A07EE73
:109C6000103AD2ED016AB8EEC77AA6EEA77AFCEEFA
:109C7000C77ACDED017A9DF80400BBE70020BCE770
:109C8000ABAAAAAAAC750020B875002010B58378DD
:109C9000052B9CBF00238370C37B0B2B044605D888
:109CA0001B4980781B4AC8540121D1542046FFF734
:109CB000B1FCB0B1E07B63780D38012BC0B211D09C
:109CC0001F281FD960791449A47931F81030012276
:109CD000A24023EA0203BDE8104021F8103000F052
:109CE00015BE10BD1F2810D961790B4AA47932F82E
:109CF00011000123A3400343BDE8104022F81130B6
:109D000000F004BE0CF0CCFFDCE70CF0ADFFEBE79D
:109D10006C3A0020603A0020F43A0020124B1349BC
:109D2000134A144810B500240C604C608C60146019
:109D300054609460046084801C605C609C60DC60A3
:109D40001C615C61E0B201340CF0AAFF102CF9D167
:109D50000024E0B2002101340CF0EAFF062CF8D117
:109D6000BDE810400CF072BF403A00206C3A002071
:109D7000603A0020583A00202DE9F04782B000F008
:109D8000BDFD10B102B0BDE8F087944E944CDFF8F1
:109D90005C82944D944FB1466FEA040A14F8013B7B
:109DA00013B91AF81430E3B13B78062B0CD9787844
:109DB000062869D900F10C02934270DC03F10C0211
:109DC000904270DD012305E0002B5DD17878C31A45
:109DD00018BF012388F80030FFF7DCFEC9F8000047
:109DE0000120A54209F1040908F1010807F1020761
:109DF000D4D10028C6D07D4B7C4A93F9003092F92B
:109E00000120002B784BB4BF1B785B78002A764A80
:109E1000B4BF9078D07803FB03F300FB00304EF61C
:109E20006443984200F28180704B704A93F903308A
:109E300092F90420002B6C4BB4BF9B79DB79002A8C
:109E4000694AB4BF107A507A03FB03F300FB003079
:109E50004EF6644398422BD80024122556F8042B62
:109E600025FA04F313F0010F11B218BF5142E0B20A
:109E700018BF09B201340CF05BFF062CEED102B022
:109E8000BDE8F0470CF0E2BE4FF0FF3288F800204A
:109E90001846FFF77FFE4042C9F80000A0E7FF2206
:109EA00088F80020F4E798F90020002A94DAEFE718
:109EB00000F050FC07EE900A9FED4D7A474BF8EE0C
:109EC000677ADA680092C7EE276A1A690192184623
:109ED000DDED007AB8EEE77A07EE902AF8EEE77A41
:109EE000424A27EE267A67EEA67A92F90310BDEE73
:109EF000C77AFDEEE77A002983ED037A17EE102A80
:109F000017EE903AC0ED047A51DB7F2A02DD334927
:109F10007F22CA60354A92F90420002A4DDB7F2B4C
:109F20009ADD2E4A7F23136196E700F013FC07EEBB
:109F3000900ADFED2F6A2948F8EE677A036886EE0B
:109F4000A77A07EE903AF8EEE77A4368009367EE57
:109F5000877AFDEEE77A17EE902AC0ED007A07EED9
:109F6000903AF8EEE77A214B67EE877A93F9001082
:109F7000FDEEE77A002917EE903AC0ED017A10DB8A
:109F80007F2A02DD15497F220A60184A92F90120D2
:109F9000002A1ADB7F2B7FF747AF104A7F235360DD
:109FA00042E77F32F1DA6FF07E020260EDE77F3246
:109FB000B0DA6FF07E02C260ACE77F33BFF64CAF21
:109FC000064A6FF07E03136146E77F33BFF62CAF7E
:109FD000024A6FF07E03536026E700BF403A00203C
:109FE000603A0020663A00206C3A0020583A00207F
:109FF00000008A43031F012B3AD981B9384A394BF3
:10A0000032F8102002FB01F1A3FB0103C91A03EB94
:10A0100051008009904228BF104680B27047324AF2
:10A02000937903EB4303B1EB430F28DA137903EB86
:10A030004303B1EB430F24DBA1EB430307EE903A5C
:10A04000DFF8ACC05379B8EEE77ADCED027A27EEA0
:10A05000277AF1EE086AC7EE267A07EE103AB8EED4
:10A06000C77A77EE877AFCEEE77A17EE901AC5E7A3
:10A070001E4BC1EBC111A3FB0131C909BEE7D17968
:10A08000BCE7937803EB4303B1EB430F15DA137886
:10A0900003EB4303B1EB430F1FDBA1EB430307EEDD
:10A0A000903ADFF84CC05378B8EEE77ADCED007AEE
:10A0B000F1EE086A27EE277ACDE7A1EB430307EE1E
:10A0C000903ADFF82CC0D378B8EEE77ADCED017A6D
:10A0D000F1EE086A27EE277ABDE700218EE700BF80
:10A0E00068F5010811080402AC7500208988888889
:10A0F000B875002008B50E490E48142214F020FC53
:10A1000018B90D4B00221A7008BDDFF828E0DFF8FF
:10A1100020C0BEE80F00ACE80F00704650F81039C0
:10A12000CCF800300EF0B8FA034B00221A7008BDCC
:10A13000783A0020CC3A0020C83A002010B5837845
:10A14000052B9CBF00238370C37B0B2B044605D8D3
:10A1500024498078244AC8540121D1542046FFF76D
:10A1600059FAB0B1E37B62780D3B012ADBB211D022
:10A170000F2B29D960791D49A47931F810300122BB
:10A18000A24023EA0203BDE8104021F8103000F09D
:10A19000BDBB10BD0F2B09D815481649C35C4888B4
:10A1A00002FA03F3034314484B80027061790F4AAB
:10A1B000A47932F811000123A3400343BDE8104005
:10A1C00022F8113000F0A2BB094A0A48D25C438849
:10A1D000012101FA02F223EA0203074A43801170C7
:10A1E000C8E700BFBC3A0020B03A0020F43A002093
:10A1F00080F50108CC3A0020C83A00202DE9F04F44
:10A20000A14FA24C3A79A249DFF8A0B2A14EDFF8E3
:10A210009092DFF890A2C2EBC212A4FB0202D20914
:10A22000C2EB0222A1FB0250121A00EB52007A7913
:10A23000994DC2EBC212A4FB0242D209C2EB022228
:10A24000A1FB0241521A800901EB52018909FF2842
:10A2500083B028BFFF200024FF2928BFFF21022C44
:10A26000009001914FF0010824D0315D99B1600058
:10A2700039780629C0B22AD997F801C0BCF1060F77
:10A280005ED90CF10C0E714562DC01F10C0EF44547
:10A2900063DD012123E0814B13F8141060000029D5
:10A2A000E6D10134062C28D0022C0BF1010B07F16A
:10A2B0000207DAD1009B8AF80430019B8AF8053046
:10A2C00085F800800BF1010B02370324CDE700294C
:10A2D00036D197F801C0BCEB010118BF01218BF802
:10A2E000001001306146C0B2FFF784FE49F8240037
:10A2F0000134062C85F80080D6D12B78EBB1684C60
:10A30000D4E900301B12001203FB03F300FB003002
:10A31000B0F5804F60D8E2682369111201FB01F1AA
:10A32000181200FB0010B0F5804F1CD8D4E9005083
:10A330005C49CD8008814A818B8103B0BDE8F08FF4
:10A340004FF0FF338BF80030FFF754FE4042CDE76B
:10A350004FF0FF0C8BF800C0F6E79BF900E0BEF170
:10A36000000FBEDAF0E700F0F5F907EE900A9FED76
:10A370004E7A4E4BF8EE677A93F90310C7EE276AD0
:10A380000029D4ED037AB8EEE77AD4ED047AF8EE3A
:10A39000E77A27EE267A67EEA67ABDEEC77AFDEE5B
:10A3A000E77A17EE102A17EE903A84ED037AC4ED9F
:10A3B000047A53DBB2F5004FA4BF47F6FF72E260A8
:10A3C0003A4991F9041000293FDBB3F5004FA4BFCF
:10A3D00047F6FF732361A9E700F0BCF907EE900A86
:10A3E0009FED317A314BF8EE677A93F90010C7EEA2
:10A3F000276A0029D4ED007AB8EEE77AD4ED017A25
:10A40000F8EEE77A27EE267A67EEA67ABDEEC77AEF
:10A41000FDEEE77A17EE102A17EE903A84ED007AF7
:10A42000C4ED017A29DBB2F5004FA4BF47F6FF72F5
:10A4300022601E4A92F90120002A17DBB3F5004F73
:10A44000A4BF47F6FF73636065E713F5004FBFF6DF
:10A450006DAF174B23614FF4004367E712F5004FD0
:10A46000AEDA134AE2604FF40042A9E713F5004F59
:10A47000BFF651AF0E4B63604DE712F5004FD8DACF
:10A480000B4A2260D5E700BFBC3A00208988888843
:10A4900011080402B03A0020C83A0020B13A002066
:10A4A000903A0020CC3A002000000C43A83A00204B
:10A4B0000080FFFF30B40F4A0F49104C1048114D77
:10A4C0000023C2E90033C2E90233C2E90433036066
:10A4D0004360836023600C486360A3602B60AB80A3
:10A4E0000B604B608B60CB600B61012230BC027053
:10A4F000FFF700BE903A0020CC3A0020BC3A002082
:10A50000B03A0020A83A0020C83A002008B500F070
:10A51000F5F900B908BDFFF771FE044B1B78002B5D
:10A52000F8D0BDE80840FFF7E5BD00BFC83A0020FD
:10A530002DE9F04F89B0002305930693079305ABEF
:10A540001A68D24343F8042B08AA9342F8D1FEF7C5
:10A5500073FCDFF8FC917B4E4FF0020B4FF0010AC9
:10A5600000F54074002509E009B186F800B0013516
:10A57000142D06F1010604F103043ED0A078002852
:10A58000F5D02778627807F0070802F0070339F85A
:10A5900018C039F81310FF08D2084CFA07FC114113
:10A5A0001CF0010F01F00101DED0002937D0013885
:10A5B0000528DCD8DFE800F03636036D0F786249F5
:10A5C00031F818103941C80757D5604931F81310D0
:10A5D0001141C90751D50DEB480301219A8AB940B1
:10A5E00022EA010201359A82142D4FF002033370E2
:10A5F00004F1030406F10106C0D1554A524805A9E9
:10A6000002F10C0532F8023B31F8024B954203EAA5
:10A61000040320F8023BF5D109B0BDE8F08F86F8BD
:10A6200000A0A4E7394640460292019300F038FAB0
:10A63000E628019B029A6ED8317802294CD0012974
:10A6400095D1394640460392029300F029FA0399C6
:10A650000190029800F024FA019B039A8342029B26
:10A6600050D33849495D012949D10DEB430391404D
:10A670009A8A22EA01029A8279E7334931F8131063
:10A680001141C807EDD5314931F818103941C907D2
:10A69000E7D50DEB43010123337003FA02F28B8AF5
:10A6A00023EA02038B8262E708A901EB480E01EB63
:10A6B000430C3EF80C0C012101FA07F720EA0700D1
:10A6C0002EF80C0C3CF80C3C914023EA01032CF8CA
:10A6D0000C3C002333704AE739464046039202930C
:10A6E00000F0DEF903990190029800F0D9F9019B7E
:10A6F000039A8342029B1BD831780129A1D00229F9
:10A700007FF435AF0DEB480301219A8AB94022EA64
:10A7100001029A822BE71146184600F0C1F9E6289B
:10A72000019B029A88D9A17802297FF420AF98E78B
:10A730000DEB4301012303FA02F28B8A23EA0203A1
:10A740008B8214E7E03A00202C99002088750020C5
:10A7500094750020431CB0EB530F4FEA53020AD903
:10A76000B0FBF2F311461344B1EB530F4FEA53021F
:10A77000F6D80846704701460846704710B5114C98
:10A7800001460822204614F037F9E27863786179AF
:10A790001343E2790B43134312D10A2023706370F1
:10A7A0001F23094AA070E3701E205F230749207110
:10A7B000637128207F23A071E37191605160116063
:10A7C00010BD00BFAC750020B875002033334B407E
:10A7D000014B1870704700BFB4750020024B1B7806
:10A7E00043700120704700BFB475002008B50B4BC3
:10A7F0001A78824210D0187008F04AFA38B1074827
:10A80000012240F63D3100F015FA012008BD04494F
:10A810000F2009F005F8F2E7002008BDB47500200C
:10A820000400343408B52E4B9A7893F800C0944550
:10A8300054D819798A4251D89A798A424ED301461E
:10A840000822184614F0D8F801788278914203461D
:10A8500012D0C07893F801C0A0EB0C0007EE900A6C
:10A86000511AB8EEE77A07EE901AF8EEE77A1D492A
:10A87000C7EE276AC1ED006A19798A4212D0587969
:10A8800093F803C0A0EB0C0007EE900A8A1AB8EE0A
:10A89000E77A07EE902AF8EEE77A124AC7EE276ABF
:10A8A000C2ED016A9A79914210D0521AD9795B7936
:10A8B000C91A07EE902A07EE101AF8EEE77AB8EEFA
:10A8C000C77A084BC7EE276AC3ED026A044808221C
:10A8D00040F6353100F0AEF9012008BD002008BD7A
:10A8E000AC750020B875002008B50349082214F0A3
:10A8F00083F8012008BD00BFAC750020024B18781A
:10A9000000F00100704700BFB4750020024B1878BA
:10A91000C0F34000704700BFB475002008B50A4975
:10A920000A4B087800221A605A609A60C20703D561
:10A93000BDE80840FFF7BEBDFFF7F0F902490B780C
:10A94000DB07F5D408BD00BFB4750020F43A002041
:10A950002DE9F04F2248234E00256FF0470436F8CA
:10A9600002EB002305EB450C03EB43014EFA03F227
:10A9700001EB0C1100EB010912F0010F4F460A46E2
:10A9800003F1010325D099F8018010F801A008F027
:10A990000F0B5AEA0B2A06D128F00F0848F00B08D3
:10A9A000445489F80180B97897F80190090151EA77
:10A9B000191109F00F080CD1825C42EA0822A2F5B5
:10A9C000617202F00F0148EA0118120987F801804C
:10A9D000BA70102BC8D10135062DC0D1BDE8F08F5B
:10A9E000D04C0020D4FA010870B5DFF8B0C0244D77
:10A9F0009FED243ADFED243A9FED244ADFED244A0F
:10AA00009FED245ADFED245A00242846002204EB4F
:10AA1000440E02EB420303EB0E130CEB03011CF894
:10AA200003608B7849781B0143EA111301F00F0191
:10AA300003F6314346EA01215B1A9BB207EE903AD6
:10AA4000F8EEE77AB0EE647AA7EE847A0132102A43
:10AA500027EEA36A67EE836AA7EE867A66EEA76A98
:10AA6000A7EEA67A77EE457A85EEA77AA0EC017A72
:10AA7000CFD10134062C05F14005C6D170BD00BF11
:10AA80002C3B0020DC9300B3D4935639CC97F7BE0F
:10AA9000DF71D5430054563F00002042F04D0020A6
:10AAA00000EB0010034B01EB011101EB00110B4413
:10AAB00098787047704600202DE9F04182B0044636
:10AAC0000191FEF7B9F90199DFF844E104EB0412B2
:10AAD00001EB011303EB0213734404EB04165C71E6
:10AAE000997101EB041300EB830301EB04171D794B
:10AAF000AA0708BF027801EB011303EB061314BF8A
:10AB000005F0030202F003020EF8032001EB041229
:10AB100000EB820200EB870792F806C0BCF10F0F32
:10AB200084BFCCF303120EF80320032D85BF01EB85
:10AB3000041300EB830305781D7901EB041300EB8C
:10AB40008303AD085A79032D2E4638BF032693069A
:10AB5000BB797F7908BF427803F00F039B0053EA6B
:10AB60009713A6F1030602F03F0209D183784778D4
:10AB700003F00F039B0053EA971308BF07F03F034E
:10AB800006EB460602EB4202770004EB041856007F
:10AB900001EB011202EB0812964405EB450503EBAD
:10ABA00043030CF0F00C6D005B00BCF1300F8EF82D
:10ABB0000B508EF80C708EF80F608EF810301FD08E
:10ABC000BCF1400F08D0BCF1500F0ED100238EF81D
:10ABD0000F3002B0BDE8F08101EB041300EB8303FA
:10ABE000DB792C2B01D80C2BF1D101EB041100EBFC
:10ABF0008100837923F0F003837102B0BDE8F08116
:10AC000001EB041300EB8303DB79132BEDD8DEE7B4
:10AC10007046002038B500250024E1B228460134F2
:10AC2000FFF74AFF102CF8D10135EDB2062DF3D114
:10AC300038BD00BF263108F09FBD00BF2DE9F047A9
:10AC4000DFF868C0DFF868904FF0000840F6033581
:10AC50006FF047076FF07C0639F8024B002308EBD2
:10AC6000480E03EB430244FA03F102EB0E1211F01B
:10AC7000010F0CEB020003F101030ED090F801A0CC
:10AC80001CF802100AF00F0A41EA0A21A94204D86E
:10AC90004B210CF8027041708670102BE1D108F145
:10ACA0000108B8F1060FD7D1BDE8F087D04C0020DD
:10ACB000D4FA01082DE9F043044604EB840301EBC8
:10ACC00081005B010D4603EB40039F49CB5C1B09F0
:10ACD00083B0042B2AD8DFE813F03F0005006000A2
:10ACE00012012C0040F697039A421FD804EB84030C
:10ACF00005EB85055B0103EB4503CC1802F00F0063
:10AD000012092271E27802F00F0242EA0012E270A8
:10AD1000CA5C032060F30712CA540DF037FF010A22
:10AD2000020C030E6071A171E271237203B0BDE8E1
:10AD3000F08304EB840305EB85055B0103EB45031E
:10AD4000C8184088C0F30B0032308242EEDDCA5C86
:10AD500022F0F002CA54E9E704EB840305EB850016
:10AD60005B0103EB4003C85C860706D540F6043C54
:10AD70006245DBD920F00200C85405EB850304EBE3
:10AD800084045B0003EB4413CA5A02F00F0242F042
:10AD90001002CA5203B0BDE8F08304EB840305EB54
:10ADA00085005B0103EB400301EB030EBEF802C01C
:10ADB000CCF30B00904280F0CD8062F30B0C0023AB
:10ADC000AEF802C08EF8093004EB840305EB85026F
:10ADD0005B0103EB4203C81842780B2AA6D9CA5C70
:10ADE000DFF86CC14FF0040E6EF30712CA5404EB87
:10ADF000440105EB450202EB01120CEB02010E4689
:10AE000091F801E001794388C0781CF8022009011B
:10AE100041EA10110EF00F00C3F30B0342EA0022C7
:10AE20009A1A002AB8BF52420A2A00F30A81B2785D
:10AE3000120142EA1E1201F15000821A002AB8BF24
:10AE400052421E2A7FF772AF04EB440E05EB450217
:10AE500002EB0E120CEB020E0CF8023000F00F06A3
:10AE60001B0A43EA06138EF80130C0F307138EF86D
:10AE70000230C0F30B0098461CF8023001903348B2
:10AE80009EF801C0B1468618825C70780CF00F0CF9
:10AE900000F00F0743EA0C2342EA0722D21A002AE5
:10AEA000B8BF52420F2A00F3CF80B278120142EAB3
:10AEB00010120198121A002AB8BF5242322A00F327
:10AEC000C3800F3901F00F034CEA031C09098EF807
:10AED00001C08EF80210FFF73BFD00250024E1B20F
:10AEE00028460134FFF7E8FD102CF8D10135EDB20A
:10AEF000062DF3D103B0BDE8F043FFF775BD04EBB9
:10AF0000840005EB8505400100EB45000C18237912
:10AF1000E5781B0143EA1513934200F28280D31AAD
:10AF2000642B7FF7FAAEB3F5487F7FF7FFAE6588F5
:10AF30000B5C62F30B05022262F3071300220B5431
:10AF400065806272F2E600BFB03C0020D04C002069
:10AF5000F04D0020801A323064286CD89EF8090029
:10AF600005EB0416431CDBB200EBC6003746664E09
:10AF70008EF80930072B26F810207FF625AF9EF8B3
:10AF80000530BEF806209EF8080043EA022343EA93
:10AF900000600DF09DFDB0F57A7F5C4934D2B31EA0
:10AFA00006F10E0203EB071302EB0712002033F841
:10AFB00002CF9A426044FAD104EB840305EB850288
:10AFC0005B0103EB420301EB030CC008BCF8022059
:10AFD000143860F30B02ACF802209CF804209CF8B3
:10AFE0000360120142EA161240F24C4E821A724578
:10AFF0006AD9CB5C13F0010F9CF801300CBF06221C
:10B000000C2213448CF8013004EB840305EB850219
:10B010005B0103EB42030120CA5C60F30712CA54D0
:10B02000D2E602F00F0105F00F0343EA0113120903
:10B03000E370227171E6CA5C012060F30712CA5402
:10B04000C2E601F15000FFE605EB450204EB440CBB
:10B050002F4E3048304902EB0C12B35432441B0AD5
:10B0600043EA0913537082F8028003780A789A42FF
:10B0700004D00B7001220421FDF7ECFA05EB450228
:10B080004FF0300314FB0323214904EB440402EB8B
:10B0900004128C1820460322591D5D1CFDF7DAFAB4
:10B0A00007F0F6FD58B11B480122262108F064FB89
:10B0B000032205F12601204608F05EFB0BE7174945
:10B0C0000F2008F0ADFBEEE7B2F57A7F09D9CB5C33
:10B0D0009CF8012003F00103033213448CF8013083
:10B0E00092E7B2F5617F8FD9A0230A2204FB03F314
:10B0F00002FB0533C818CB5C427803F0010302322F
:10B100001344437080E700BF70400020B03C002033
:10B11000D04C0020C5750020083B002004003434CA
:10B120002DE9F04F89B007F099FD002800F0D1809B
:10B130000020FDF7FFFD012140F63E3013F09CFAA0
:10B1400040F63E328046262108F086FB082208F6AB
:10B15000353106A813F050FC06A8FFF70FFB794E17
:10B1600098F83D0B784CFFF733FB98F80050774880
:10B1700035704FF49072002113F0F2FB4FF490728F
:10B180000021204613F0ECFB002D00F0AB804FF4C3
:10B19000907208F10101204613F02EFC6C4F0395CC
:10B1A000414640F214596FF0470A4FF0000EB8467E
:10B1B00038F8026BCDF804E000230EEB4E0CCDF80E
:10B1C000088003EB430526FA03F205EB0C1504EBAC
:10B1D000050812F0010FC6462A4603F1010332D0DA
:10B1E00098F80170605D07F00F0B40EA0B2000F249
:10B1F0007450C0F30B00B0F5487F07D927F00F0754
:10B2000047F00B0704F805A088F801709EF80200CB
:10B210009EF80150000140EA151000F53560C0F3BA
:10B220000B00484505F00F050DD9A25C42EA052246
:10B23000A2F5617202F00F0045EA001512098EF8BE
:10B2400001508EF80220102BBBD1DDF804E0DDF8B0
:10B2500008800EF1010EBEF1060FA9D1039D8846AC
:10B26000002D3AD1384939484FF4907213F0C4FB9D
:10B2700038484FF4CC62002113F072FB0025002403
:10B28000E1B228460134FFF717FC102CF8D1013544
:10B29000EDB2062DF3D1FFF7A7FB00202E490246A1
:10B2A000A1F1A0031A805A809A80DA801A810A33A9
:10B2B0008B42F7D1A030B0F5707F03F1A001EFD140
:10B2C000264B012240461A7009B0BDE8F04F13F03A
:10B2D00011BA07F005FD01202BE7FFF7AFFCFFF7E0
:10B2E00037FBBFE70422294605A8FDF79DF9059B1A
:10B2F00043F23447BB4209D0FDF7E8F9294605A8D7
:10B3000004220597FDF7A6F9357847E701220421C5
:10B310003046FDF789F93578002D3FF43FAF4FF403
:10B32000907205212046FDF77FF901222621304643
:10B3300008F022FA4FF490722721204608F01CFAF8
:10B3400035782BE7C5750020D04C0020F04D00204B
:10B35000D4FA010870460020503D0020AE3C002089
:10B3600010B5FDF751F9FFF7DBFE084B0848002147
:10B370004FF4C062197013F0F3FA082408F070F962
:10B38000631E13F0FF04F9D110BD00BFAC3C0020D8
:10B390007040002070B5A2F596639BB240F6FC04A5
:10B3A000A34282B01AD8634B1D7806469646C5B1B3
:10B3B000614A127801EB001301EB011C00EB00164F
:10B3C00002EBC3025D4B5E480CEB061C63444FEA84
:10B3D0001E2120F812E083F807E01972002002B065
:10B3E00070BD0C460192FFF765FC06EB0611534851
:10B3F000019B04EB041202EB01120244517A92F811
:10B400000AC041EA0C21C91A04310829E6D9DFF83B
:10B410004CC1537206EB460E04EB440101EB0E11D6
:10B420004FEA132E82F80AE082F808E00CEB010ED6
:10B43000D3711CF801209EF8011001F00F0142EABF
:10B44000012203F631439B1A9BB240F631429342EC
:10B4500033D807EE903ADFED3B6A9FED3B7A9FEDE4
:10B460003B6A3B4BDFED3B5AF8EEE77A04EB061202
:10B47000A7EEA67A03EB820327EE866ADFED366A33
:10B48000A7EE867A67EEA66A93ED006A66EEA76A73
:10B49000A7EEA67AF1EE086A77EE657AB6EE007A44
:10B4A00067EE867AA7EEA67AFCEEC77A17EE903A98
:10B4B0009DB2F52D28BFF525EDB204EB041C06EB7B
:10B4C00006160CEB061C00EB0C04E378A570AB42EF
:10B4D00084D010F80C30E570023B032B24D8DFE851
:10B4E00003F017110802204602B0BDE87040FEF7D5
:10B4F00033BBFFF703FA88B1204602B0BDE87040C5
:10B50000FEF71CBE204602B0BDE87040FEF75EB9F3
:10B51000204602B0BDE87040FEF794B8204602B065
:10B52000BDE87040FEF7B2BB204602B0BDE87040F7
:10B53000FEF770B8AE3C0020AC3C00207046002006
:10B5400070400020CC97F7BEDF71D543D4935639B5
:10B550002C3B00200054563FDC9300B3F04D0020FC
:10B5600001EB011200EB001C284B02EB0C129A5C61
:10B57000013A042A47D8DFE802F03828460F0300D2
:10B5800000EB001001EB011101EB00110B44D87B23
:10B59000003818BF0120704700B583B0CDE9000125
:10B5A000FFF7B4F978B10199009A184B02EB021039
:10B5B00001EB011101EB001119444878A0F10100E1
:10B5C000B0FA80F0400903B000BD00EB001001EBC1
:10B5D000011101EB00111944487800F0FD00A0F1C1
:10B5E0000100B0FA80F04009704700EB001001EB59
:10B5F000011101EB001119444878A0F10100B0FAE3
:10B6000080F0400970470020704700BF704600205E
:10B6100008B50378022B0AD0042B01D0002008BD06
:10B6200014490A78901E012820D9012008BD12482B
:10B63000DFF840C0002101704FF4C0620F488CF861
:10B64000003013F08DF90E4B0E4800214FF490722C
:10B65000196013F085F90C4A0C4B00211160516000
:10B6600091601960596099600120DFE708480B700C
:10B670000270DAE7AE3C0020AC3C002070400020B5
:10B680000C3B0020F04D0020203B0020103B002010
:10B69000AD3C00200278052A4AD841780F2903469C
:10B6A00046D800B501EB011C02EB021E21485A707E
:10B6B0000CEB0E1C6044997090F802C0DFF878E043
:10B6C000AEFB0CEC4FEA9C0C83F803C090F802C070
:10B6D00083F804C090F807C083F805C0007A987119
:10B6E00001EB410C02EB4200DFF850E00CEB0010E4
:10B6F0000EEB000C1EF80000D8719CF8010000F061
:10B700000F0018729CF802009CF801E0000140EA6A
:10B710001E1058729CF80200DFF824C000099872CD
:10B720003CF8122001200A4102401032DA7200BDBA
:10B730000020704770460020ABAAAAAAF04D002056
:10B74000947500202DE9F04F8A4B93F800C087B024
:10B75000BCF1040F0ED8DFE81CF00D00EE00EE0087
:10B7600018000500844B1B78032B00F0E581814A0B
:10B7700000231370FDF700FEFEF7DAFEFEF7FCFA79
:10B7800007B0BDE8F04FFEF7C1BE7C4BDFF814A256
:10B7900093F8009000250127794B3AF8026B019548
:10B7A00003EB450300244FEA45080293CDF80CA0B3
:10B7B00002E00134102C7DD046FA04F3DA07F8D504
:10B7C00004EB05136F4A09EBC30332F81310B1F50C
:10B7D000966F40F2A28008220023023A12F0FF0284
:10B7E00003EB4103F9D108EB0502674804EB440180
:10B7F00001EB021100EB010C4FEA440E9CF8022011
:10B800009CF801A0120142EA1A12002B4AD04FEA1A
:10B81000D30BC3F3CF03002A74D05033934241DAE1
:10B820009CF800100AF00F0A41EA0A2108EB050310
:10B83000A6440EEB031E00EB0E09544B99F80120B1
:10B8400003F80E10734402F00F0E029A0120B2F8B2
:10B8500000C0A04040EA0C000BF1500B1080090A18
:10B860000BF00F004EEA0012CBF3071B41EA001168
:10B8700089F80120597083F802B089F802B00DF000
:10B8800085F9434B019A1860424B1A70424B1C7069
:10B8900099F8022099F80130120142EA1312374B4D
:10B8A00093F800900134002A0CBF002707F001072D
:10B8B000102C81D10135062DDDF80CA07FF46CAF82
:10B8C00009F10103DBB2354C2C4A2068082B28BF54
:10B8D00000231370002F00F0EC80002800F0E680B9
:10B8E0000DF0F6F840F6B83398427FF643AF2C4D92
:10B8F0002B78002243F0020322602B70FDF72EFD0F
:10B900002F7851E110F801C00AF00F014CEA012133
:10B91000A1F5487C9C4589DCC4E71B4A04EB440341
:10B9200008EB050103EB011313449A785B781201CD
:10B9300042EA1312B6E7114A1378062B40F2F98057
:10B9400000240123174DDFF864E01748DFF8388042
:10B95000DFF85CB00593A14609EB890335F8026B6B
:10B9600002905B0101930246002109EB490A03940E
:10B97000049524E0AE3C0020AD3C0020AC3C00200F
:10B98000203B002070400020F04D0020D04C0020D3
:10B990000C3B00209124002090240020043B002038
:10B9A000C5750020D4FA01087E400020103B00201D
:10B9B000B03C00200131102902F1100234D046FAC7
:10B9C00001F3DB07F6D5A2F11000002330F8024F97
:10B9D00082422344FAD1C3F3CF03A3F60430B0F577
:10B9E0002A7F6AD9BEF80040012088402043BCF17C
:10B9F000010FAEF80000DDD140F6033083420CD8D1
:10BA000009EB890301EB81005B0103EB40031BF8A9
:10BA1000030040F002000BF803000131002310295D
:10BA2000059302F11002CAD102A831C81034602C6B
:10BA300009F101090EF1020E00F580708CD1BCF104
:10BA4000020F00F0EF80059B002B3FF490AEDFF873
:10BA500000E29EF8003043F0010713F0010340F0CC
:10BA6000DB80794D794C9C4600220CEB4C0002EBBC
:10BA7000420303EB0013E918E61891F80180E95C32
:10BA800008F00F0841EA0821E1547378013223F0ED
:10BA90000F0343EA1123102A7370E8D10CF1010C53
:10BAA000BCF1060FE0D18EF800707DE00DF06EF86D
:10BAB000206000283FF45EAE12E701EB410505EB84
:10BAC0000A1508EB050718F80540787800F00F0014
:10BAD00044EA0020A3F11404A4B2201A0028B8BF3D
:10BAE00040421E287FF766AF08F80540019801EB39
:10BAF000810500EB45057878C4F3032420F00F009E
:10BB0000204378701BF80500BCF1010F40F00800DD
:10BB10000BF805007FF44EAF7878A3F5667303F059
:10BB20000F0400F00F0040EA04101B097870BB708E
:10BB300040E7013313701DE6DFF824C1424D434E48
:10BB400000273CF8024B002307EB470003EB4302BE
:10BB500044FA03F102EB001211F0010F05EB020EA3
:10BB600003F1010316D09EF802109EF8018009012E
:10BB700051EA181132440DD15178927801F0F00158
:10BB8000120108F00F0848EA010812098EF8018036
:10BB90008EF80220102BD9D10137062FD1D12C4A93
:10BBA00017782C4A002313702B4B1A78BA4205D011
:10BBB00027481F7001220421FCF74CFD23484FF455
:10BBC00090720521FCF746FD07F062F8002836D098
:10BBD0001F480122262107F0CFFD1C484FF4907228
:10BBE000272107F0C9FDFEF7B3FE00250024E1B2CE
:10BBF00028460134FEF760FF102CF8D10135EDB274
:10BC0000062DF3D1FEF7F0FE124B1B7803F0FD0377
:10BC1000012B7FF4AFADAAE50E4A8EF80070002329
:10BC20001370A7E50B4A03231370059B002B3FF409
:10BC30009EAD074A137843F0010313709AE5074954
:10BC40000F2007F0EDFDC3E7F04D0020D04C0020A1
:10BC5000C5750020AE3C0020003B002004003434B9
:10BC6000D4FA01080378A92B40F095802DE9F04F14
:10BC70004378013B8FB00F460446412B00F284808D
:10BC8000DFE813F0640182008200820082008200FB
:10BC90008200820082008200820082008200820094
:10BCA00082005801500146013D01420036012F013A
:10BCB00082008200820082008200820082001701DE
:10BCC00010010C010501FE00FA00820082008200D2
:10BCD0008200820082008200820082008200820054
:10BCE0008200F300820082008200820082008200D3
:10BCF0008200820082008200820082008200820034
:10BD00008200EC00C5008A00E3798078E17822792E
:10BD100094F805C094F806E0002B4FF00003CDE93D
:10BD20000833CDE90A33CDE90C3314BF4FF00108D5
:10BD300098461DD104F10805079408AB81468A4650
:10BD40009346CDF814C0CDF818E01A3429461846A9
:10BD5000032212F051FE0335A54200F10403F5D190
:10BD6000DDF814C0DDF818E0079C484651465A46F5
:10BD700008AB0293CDF804806346CDF800E0FDF7F0
:10BD8000D7F880F00103A370394620460FB0BDE814
:10BD9000F04F0AF0D5BE70478378C278FF2B00F1D0
:10BDA000050000F0D980052B00F2D3800F2A00F2A5
:10BDB000D080764931F813101141C90740F1E08075
:10BDC00002EB420102EB031203EB430301EB03110D
:10BDD00093006F4A12F801C084F805C00A44042594
:10BDE000517801F00F01A171917892F801C0A9403A
:10BDF00041EA1C11E1719278EA40227265492844B7
:10BE00001944042212F0F8FD00232371BCE7624BB1
:10BE1000002208ADCDE90822CDE90A22CDE90C22A5
:10BE200003F10C002A4633F8021B42F8041B83423C
:10BE3000F9D15A4A5A4B12781B78E370A270231D2D
:10BE40002646163429461846032212F0D5FDC31C97
:10BE5000A34205F10405F5D1344695E70230FFF71A
:10BE6000D7FB80F00103A3708EE70230FFF712FCCE
:10BE700080F00103A37087E78078FEF7B7FC83E7C3
:10BE80000230FEF7ABFC80F00103A3707CE70230C8
:10BE9000FEF7C8FC80F00103A37075E70230FEF7DF
:10BEA00023FD71E78078FDF7BFF980F00103A370EF
:10BEB0006AE78078FDF7DEF9A046064600240025F3
:10BEC000E9B220460135FEF7F7FD102DF8D1631CCD
:10BED000DCB2062CF3D186F00100444688F802005B
:10BEE00052E70230FDF754F980F00103A3704BE7ED
:10BEF0000230FDF7A5F880F00103A37044E7C17894
:10BF00008078221DFDF7E8F980F00103A3703BE77C
:10BF1000C37801796279807843EA0121A31DFCF797
:10BF2000E1FF31E780780021FCF792FF80F0010308
:10BF3000A37029E7FCF786FF5C23032223711423F7
:10BF4000A070E2706271A371E3711DE70423837036
:10BF50001AE70123237117E7FF2AFAD106220023EB
:10BF600062711022A371E271237204F1090244F29A
:10BF7000BC3308250021117051709170D1703DE7DC
:10BF800002EB03139B0002460425F3E7D4FA0108F1
:10BF9000D04C00202C3B0020203B0020C575002009
:10BFA000AE3C0020314B1B78032B01D0FDF71CBAAF
:10BFB0002DE9F04F9622104683B0002109F0FEFDD6
:10BFC000DFF8BCA02A4ADFF8BCB02A4FDFF8B880FF
:10BFD0004FF00009284B32F8026B019203EB091570
:10BFE000002412E03B789342E1B203D198F800308C
:10BFF0008B4232D000232878FF22194609F0C8FD71
:10C000000134102C05F101051AD046FA04F3D907C2
:10C01000F6D5BAF80030234113F001035FFA89F234
:10C02000E0D1BBF800202241D207E9D528781A4692
:10C03000FF21013409F0ACFD102C05F10105E4D11C
:10C0400009F10109B9F1060F019A0AF1020A0BF18F
:10C05000020BBFD103B0BDE8F08F084B18680CF09D
:10C0600037FDB0F5FA7FC5D2CAE700BFAE3C00206D
:10C07000D4FA010891240020842600200C3B0020E3
:10C08000203B0020103B002090240020014B33F87F
:10C09000100070470030002002484FF4CC620021AD
:10C0A00012F05EBC7046002008B5FDF74DFDBDE8FE
:10C0B0000840FEF733BC00BF0120704738B5044686
:10C0C0000D4600F065F808B9002038BD2946204625
:10C0D000FDF71CF90028F7D02946204602F0BAFBEC
:10C0E0000028F1D02946204600F086FA0028EBD03F
:10C0F00029462046FFF7E0FF0028E5D029462046E4
:10C1000001F08CFE0028DFD029462046BDE83840EB
:10C1100001F0DAB808B501F0CBF803F0EDFCFFF759
:10C1200041FF00F00BFB00F03DFD012008BD00BF0A
:10C1300038B505460C4605F0C5F800B938BD2146AE
:10C140002846BDE83840FFF7B9BF00BF00B583B04F
:10C1500009F020FF034618B10190FFF7DBFF019BB8
:10C16000184603B000BD00BF08B504F085F800F024
:10C1700063FB01F019FF00F073F805F01BF808BD30
:10C1800008B500F089FEBDE8084004F011BE00BF0C
:10C1900010B5A0F5FC4382B00A2B56D8DFE803F0B7
:10C1A0001C1C1C1C30370606060625002848497949
:10C1B000063B10F8232000292ED19AB102EB83020E
:10C1C000141800EB830313F8010F019305F0CEFA66
:10C1D000019BA342F7D105E01E4A4B79805C9BB1DD
:10C1E00005F01AFA002002B010BD4B79002BF9D0EF
:10C1F000194B1A7802B30CF0C9FC184B1860F1E720
:10C200004B79C120002BEBD105F0B0FAEAE74B796E
:10C21000C220002BF8D0E3E7002AE3D002EB830230
:10C22000141800EB830313F8010F019305F0F4F9E0
:10C23000019B9C42F7D1D5E70122E3201A7005F05B
:10C24000EBF92C2005F0E8F9D5E70120CBE700BF9A
:10C2500090F50108A0770108144F0020104F00202E
:10C2600008B50E4B1A781AB9BDE80840FDF708B8B2
:10C270000B4B18680CF02CFCB0F5FA7FF4D9E320D6
:10C2800005F074FA2C2005F071FA044B00221A70A4
:10C29000034B1A60BDE80840FCF7F2BF144F0020C2
:10C2A000104F002010B582B0044605F043F9034654
:10C2B00010B9184602B010BD0090204605F03CF9B8
:10C2C00009F054FF009B0028F3D101900AF00AF90D
:10C2D00001980246014609F071FC00F0E9FF064AA8
:10C2E000D268904703F0C4FF009B0028E1D00AF019
:10C2F000EDF8009BDDE700BFE8FD01082DE9F04106
:10C300008478052C06460F460BD80546E0B2FFF7A9
:10C31000BDFE0134030A062CEB70287105F10205FD
:10C32000F4D1034B39463046DB69BDE8F04118478C
:10C330004C280020014638B50446762301F8013B1D
:10C340002E251022012012F0CBF9E11C1022A5703D
:10C35000012012F0C5F9611D10222571012012F093
:10C36000BFF92023A371E01D0249BDE83840142223
:10C3700012F042BBA4F501080B4620B90A48114649
:10C38000C2691846104770B515460C4602F05CFAB3
:10C39000032800D070BD054BDB6A002BFAD029467C
:10C3A0002046BDE8704018474C280020BC240020DF
:10C3B00030B50C460B7883B0054660B9022B1CD013
:10C3C000A03B0B2B1DD8DFE803F03228695C561C1C
:10C3D0001C463D38801F012B67D003F16001C9B2B4
:10C3E0000B290ED8A03B0B2B0BD8DFE803F020164F
:10C3F000574A440A0A342B260D0D4B78032B00F0C4
:10C400008D80002003B030BDB5FA85F0214640098B
:10C4100000F070FA012003B030BD601C0192FFF7FC
:10C4200089FF019A21462846FFF7A6FFF2E702237B
:10C4300000216370A170E370F4E711462046FFF716
:10C4400011FCE7E7B5FA85F021464009019200F0BA
:10C45000FDFD019AE6E76378013B122B30D8DFE857
:10C4600003F0554E47472F2F2F2F2F2F40402F2FB0
:10C470002F2F2F393900019204F04CFA019A607085
:10C48000D0E7294B0192187805F046F8274B6070E9
:10C49000187805F041F8019AA070C3E79F230021A6
:10C4A000A37003236170E370BCE734220E20802167
:10C4B000E270227111226071A171E3712272A0E712
:10C4C000FF21002321706370ACE71146204603F082
:10C4D000A7F99FE711462046019200F0C9FB019A97
:10C4E000A0E711462046019202F040FA019A99E72E
:10C4F00011462046019200F02DFC019A92E7114668
:10C500002046019200F0A0FB019A8BE70221002354
:10C51000E170D321A3702371617183E71146204636
:10C52000FFF7ECFE76E700BFFD510020FC51002034
:10C53000FFF73EBF0B4620B90A481146C2691846AC
:10C54000104770B515460C4602F07EF9032800D05E
:10C5500070BD054BDB6A002BFAD029462046BDE8AA
:10C56000704018474C280020BC24002010B582B031
:10C5700005F0AEFC05F0C2FC1C491D4B0C780022F6
:10C580001A7006F069FBFEF7CBFDFFF78DFD06F094
:10C5900065FB38B3174806F071FB204605F004FD33
:10C5A00009F0F0FE09F012FD09F040F800F000FC7F
:10C5B00002F0D0F941F288300EF094F8022002F037
:10C5C0004FFE00F0B5FBFF220023ADF804208DF8EC
:10C5D0000630FA21019B0322084602B0BDE8104054
:10C5E00000F08EBA06F07CFBD4E700BFFD510020BE
:10C5F000174F0020289900204A2808B543D016D9A3
:10C6000020F0020345F22122934222D04F280CD180
:10C610004B79002B59D0454A1378002B7DD001333C
:10C62000DBB2042B88BF01231370012008BD0D2845
:10C6300018D01D28F9D13E4A49791378002935D000
:10C6400043F00403072B137016D0D84300F0010009
:10C6500008BD374A4979137800294DD043F00103CA
:10C660001370E2E7324A49791378002935D043F054
:10C670000203072B1370E8D10CF088FA2D492C4ADD
:10C6800008601378E1E74B79002B3BD0274B1A78F1
:10C69000002A3FD1264A137843F01003192B137058
:10C6A000C3D10CF073FA234B1860BEE72248DFF8C1
:10C6B00084C023F0040313700378CCF800105A07E9
:10C6C000B3D523F004030370AFE7194919480A787A
:10C6D000036022F008030B70A7E71748DFF854C087
:10C6E00023F0020313700378CCF8001099079CD54F
:10C6F00023F00203037098E70E4823F00103137040
:10C70000016092E70A490B480A78036022F010039F
:10C710000B708AE700221A7087E7054A137843F006
:10C720000803192B137080D1BBE700BF174F0020FF
:10C73000184F00201C4F0020154F002008B5124B49
:10C740001B780BB9012008BD013B032B08D8DFE89B
:10C7500003F0150F09020021FF22084609F02EFA06
:10C76000002008BD0022FF21104609F027FAF7E754
:10C7700000221146FF2009F021FAF1E7FF221146BD
:10C78000104609F01BFAEBE7174F002008B5274ABF
:10C790001378D90719D52648C18813F0020F01F084
:10C7A000800113D0B1B90089DFF888C023F0020EF0
:10C7B0005B0782F800E000F00400CCF8001031D4F0
:10C7C00018B14EF0040E82F800E008BD99B143F0B4
:10C7D000020313700189580701F004011BD589B1C8
:10C7E000072BF2D1134B1A68002AEED10CF0CEF9C8
:10C7F000104B186008BD0189580701F004010AD5E3
:10C800000029E2D1DFF82CC023F0040300211370CB
:10C81000CCF8001008BD0029D7D043F00403DBB2E8
:10C820001370DDE70028D0D17346EDE7184F0020E4
:10C83000003000201C4F002008B5174B186818B9AD
:10C84000BDE80840FFF7A2BF0CF042F940F6B8324D
:10C850009042F5D9114A104B117800200729186031
:10C8600007D019290CD000231370BDE80840FFF74A
:10C870008DBF0B4B06211970FFF778FE074AF2E7D0
:10C8800009F074FC054A18B1064B01211970EAE75A
:10C8900009F078FD014AF7E71C4F0020184F0020EF
:10C8A000154F0020174F002070B588B00D46144674
:10C8B000002120220646684612F052F8AB23294692
:10C8C00022460DF101008DF8003012F095F84FF07E
:10C8D000000C6B4607A913F8012F99429444FAD132
:10C8E0002022694686F00100ADF81EC0FFF744FD26
:10C8F00008B070BD0B78AB2B00D0704710B50A465E
:10C9000088B001F11C0E002312F801CF6344964554
:10C910009BB2F9D191F81EC0DAB2944541D1CA7FD9
:10C92000B2EB132F3DD14B7808B9072B39D9013B16
:10C930000446082B35D8DFE803F07F78346D5A348D
:10C940005205360047F2086310220DF10201012062
:10C95000ADF8003011F0C4FE2E23102201A90120F1
:10C960008DF8033011F0BCFE2E2310220DF10601CC
:10C9700001208DF8053011F0B3FEDFF804E120232B
:10C980008DF80730BEE80F000DF1080CACE80F0081
:10C99000DEF80030CCF800301C2269462046FFF754
:10C9A00083FF08B010BD40F609432D49ADF80030B3
:10C9B00004220DF1020012F01FF82A4904220DF1A1
:10C9C000060012F019F8284904220DF10A0012F0AD
:10C9D00013F80E2269462046FFF766FFE1E78878E4
:10C9E0004E28DED808B0BDE8104002F08FBC052309
:10C9F0008DF8003003F04CFD1C4B8DF801001B69D5
:10CA0000032203F00103694601208DF80230FFF78D
:10CA10004BFFC6E78B78A12B15D0A22BC1D1CB78C9
:10CA2000D3B1134B10221A83BBE78B78114A003B1A
:10CA300018BF01231370B4E70F48104B89780170B9
:10CA400000221A60ADE7C878003818BF012008B08E
:10CA5000BDE8104002F042BC054B10225A83A0E70B
:10CA6000107AFF1F207AFF1F307AFF1F0004024058
:10CA700000000240164F0020174F00201C4F0020DE
:10CA8000A4F501080A4B1B780BB90120704700B5CB
:10CA900083B00B464FF4817C032201A90120ADF83D
:10CAA00004C08DF80630FFF7FFFE012003B000BD83
:10CAB000164F002008B509F059FB00B108BDBDE8CC
:10CAC000084009F007BB00BF09F040BB08B509F0FA
:10CAD0004DFB003818BF012008BD00BF08B507484E
:10CAE0000822172106F0B8FE04480378032B00D96A
:10CAF00008BDBDE8084008F099BD00BF4899002076
:10CB000010B5104C82B0A0800193002040F20113B8
:10CB100022726381E18060720CF038F8019B206022
:10CB20001A0CA381A27309F021FB38B1A27B617BAF
:10CB3000207B02B0BDE8104009F040B809F0CAFA05
:10CB4000F4E700BF204F002008B5134B13484FF007
:10CB5000000C0822172183F80BC006F07DFE0F4859
:10CB60000378032B04D909F001FB024638B108BD54
:10CB700008F05CFD09F0FAFA02460028F7D10146F8
:10CB800009F01CF800F094FB054BDB689847BDE802
:10CB9000084009F0DBBA00BF204F00204899002070
:10CBA000E8FD010808B5194BDA7A02B908BD186822
:10CBB0000BF08EFF154B9A7A4AB19A88904210D2A8
:10CBC0009A7B597B187BBDE8084008F0F7BFDA88EC
:10CBD000904206D20022BDE808401146104608F0F7
:10CBE000EDBF0BF0D3FF094B9A7A186082F0010277
:10CBF0009A72002AEED05A7A197A0132D2B2914250
:10CC00005A72DDD8BDE80840FFF79EBF204F0020D4
:10CC1000014BD87A704700BF204F0020704700BFFB
:10CC2000704700BF08B5FFF7F9FFBDE808400BF0FB
:10CC300031BF00BF08B5FFF7F3FFBDE808400BF0B8
:10CC40002BBF00BF00F0B4B838B50922002301257E
:10CC500004468370C57002710449053011F0CCFEA2
:10CC60000223A373E573257438BD00BFB8F501082E
:10CC70000378A72B06D14378122B07D0132B02D0B1
:10CC8000FF2303707047012383707047044B1B78A8
:10CC9000DB09002243F004038270C370704700BFB9
:10CCA0002899002030B50F4B89B02022044600217E
:10CCB00068461D7811F054FEA32320468DF80030FD
:10CCC00004F02AFC8DF80100284604F025FC202100
:10CCD0008DF80200684609F033FF204605F05EF942
:10CCE00009B030BDFC51002030B5104B89B01D7823
:10CCF000202204460021684611F032FEA323284674
:10CD00008DF8003004F008FC8DF80100204604F096
:10CD100003FC20218DF80200684609F011FF20462F
:10CD200009B0BDE8304005F06DB900BFFD510020ED
:10CD300000B589B020220021684611F011FE41F2B1
:10CD4000A71320216846ADF8003009F0F9FE09B0BC
:10CD500000BD00BF00B54278032A83B0034616D059
:10CD6000042A0ED1114893F802C001930122252113
:10CD700080F800C006F000FD019B00229A7003B00D
:10CD800000BDFF22027000229A7003B000BD019026
:10CD900001220648252106F05FFD0448019B027828
:10CDA000DA7000229A7003B000BD00BF304F00203F
:10CDB00038B5314B0024FF251846042240F6643173
:10CDC000DD705D701C709C7006F0D6FC2B4B012250
:10CDD000184640F668311C7006F0CEFC284B012244
:10CDE000184640F669311C7006F0C6FC25492648F5
:10CDF00040F2051211F000FE234840F2051240F601
:10CE00006A3106F0B9FC21492148572211F0F4FD9E
:10CE10001F48572240F66F4106F0AEFC21464F22D4
:10CE20001C4811F09DFD1B497F234D7081F829504E
:10CE300005224D1E01F8012C8B706FF0770281F8EE
:10CE40002A30132381F82B20CA704C718C7185F81D
:10CE50002D306B7128460223502240F6C64185F8DA
:10CE60002E4085F82F4085F8283006F085FCBDE877
:10CE7000384000F08FBD00BFCC750020A9500020C5
:10CE8000D07500207C250020344F00202425002070
:10CE90004C500020D575002010B540F205121D4CF5
:10CEA0001D491E4811F0A8FD1D490F2006F0B8FCD1
:10CEB0002046042240F6643106F0CEFC19480122D7
:10CEC00040F6683106F0C8FC94F903301648002B90
:10CED000A8BF80234FF0010240F66931A8BFE3707C
:10CEE00006F0BAFC0D4840F2051240F66A3106F031
:10CEF000B3FC0E48572240F66F4106F0ADFC0C48DB
:10CF0000502240F6C64106F0A7FCBDE8104000F0F4
:10CF100041BD00BFCC7500207C250020344F00208F
:10CF200004003434A9500020D07500204C5000205B
:10CF3000D47500200248012240F6683106F01CBC7E
:10CF4000A950002042781C2A14D810B503781C463A
:10CF50001344572B82B00ADC72B1431CD11801E094
:10CF60008B4209D013F801CFBCF1010FF8D9002092
:10CF700002B010BD00207047074B0192811C1819A8
:10CF8000009111F039FD0548DDE90012204411F04F
:10CF900033FD012002B010BD4C50002050990020FC
:10CFA00090F802C0BCF1030F1CD830B590F800E037
:10CFB000BEF1020F83B012D843781C466344052BA0
:10CFC0000DDCBCF1000F39D000EBCC01034601E0D1
:10CFD0008B4209D0DA78172A03F10803F8D9002028
:10CFE00003B030BD00207047C11D6FF027000EEB6D
:10CFF0008E0300FB0EFEE2180EEBC30E124B01EB8C
:10D00000CC040EF1040503EBC20311F8042C1A70D2
:10D0100011F8032C5A7011F8022C9A7011F8012C97
:10D02000DA70E81804220191009311F0E5FC0199EF
:10D03000009B0831A14203F10803E6D100F0AAFCED
:10D04000012003B030BD00BFD4750020F0B54B788F
:10D05000013BA5B00C460E2B00F21D81DFE813F05A
:10D0600017001F003F004B005C005F006800EE00EF
:10D07000B800D3006C0071007E0084000F00881C93
:10D08000FFF78EFF80F00100A07025B0F0BD0122F7
:10D090000023CA700B710020A07025B0F0BD7F483E
:10D0A000042240F6643106F067FB7D48012240F619
:10D0B000693106F061FB7B4840F2051240F66A31A7
:10D0C00006F05AFB7848572240F66F4106F054FBB1
:10D0D0007648502240F6C64106F04EFBDBE76F4B28
:10D0E0000022CA70187859789A78DB7820716171BB
:10D0F000A271E371CFE74A79684B8878C978597093
:10D10000802A2179187038BF80229970DA700BF06C
:10D1100021FAFFF7C7F8BEE75723CB70BBE78B7840
:10D12000062B1F4640F291800120A07025B0F0BD73
:10D130005B4B1B78CB70AEE702220523CA700B71E4
:10D14000A9E7CA781D2AEFD88B7899185729EBDC04
:10D150005549E01C194411F04FFC9CE7881CFFF76F
:10D16000F1FE80F001008FE70A79032ADCD88B7882
:10D17000022BD9D8C97888180528D5DC002A8AD08E
:10D1800003EB8300DFF824C101440CEBC105C000B0
:10D190006FF0270101FB03031F1DE31D03EBC20614
:10D1A0002A7803F8042C6A7803F8032CAA7803F889
:10D1B000022CEA7803F8012C79191846042211F0A0
:10D1C0001BFC00F10803B34205F10805E8D162E752
:10D1D000C9780929A8D800293FF45DAFA278314B5E
:10D1E00002EB420201EB41011A442144234610782C
:10D1F000D870507818719078587103338B4202F1CF
:10D200000302F4D147E7C97809298DD800293FF4F2
:10D2100042AFA278234802EB420201EB41012346D0
:10D2200002442144187910705879507098799070A0
:10D230000333994202F10302F4D12CE78B78042BDB
:10D240003FF672AF164A137025E7032200231144FC
:10D2500003A80393A51C11F0CFFB039E002308E055
:10D26000FF222946013301F8012F102B0D463FF410
:10D2700012AF01229A404FF0FF3132428DF8101068
:10D28000EED004AAD9B23846019308F0EBF99DF824
:10D290001020019BE5E7FF230B70FCE6CC75002016
:10D2A000D0750020344F00204C500020D475002051
:10D2B00003F0EEB808B503F0EBF802F0C9FFBDE8E3
:10D2C000084008F043BD00BF38B505460C4608F0DD
:10D2D0006FFF18280CD1637973B1A5F5F04023389E
:10D2E000072809D8DFE800F0222222220A4B37243F
:10D2F00008F05EFF1728EED0012038BD2C4A1378C5
:10D30000980743D0D3781033FF2B194628BFFF214D
:10D31000302BC9B206D8C1F1300323F00F0310310E
:10D320000B44D9B21A20D17006F01AFA002038BD89
:10D3300008F01CFF0028F9D008F03AFF1728F5D1B3
:10D340001B4B1979103921EAE171C9B21B201971FF
:10D3500006F006FAEAE708F009FF0028E6D008F030
:10D3600027FF1728E2D1124B19791031FF2928BF66
:10D37000FF21C9B21B20197106F0F2F9D6E70C4B58
:10D380001A789107D2D0DA78302A02D808F09EFEB7
:10D39000CCE7103AD1B21A20D97006F0E1F9044B6B
:10D3A0001A789207C2D0DB78302BBFD8EEE700BFE7
:10D3B0004899002084B003EB8303BDF8102001904E
:10D3C0001A4492B2FF2A28BFFF22C0F30743D24378
:10D3D00053FA82F2FF2A28BFFF228DF80620019B14
:10D3E0000020DAB262F30700C3F3072262F30F20D2
:10D3F000C3F3074363F3174004B0704784B0BDF82C
:10D4000010200190D31A9BB2FF2B28BFFF23DBB261
:10D4100083F0FF0CC0F307426244FF2A28BFFF22BB
:10D4200003448DF806208DF80430019B0020DAB209
:10D4300062F30700C3F3072262F30F20C3F307432D
:10D4400063F3174004B070472DE9F041064686B0FB
:10D45000007808F0A1FDC4B2C0F30725AC421ED28B
:10D46000DFF84C80114F04EB44010322414404A82F
:10D4700011F0C2FAFB788DF81230049806F064FEC1
:10D480000246C0F307432146F07800930134C2F30B
:10D490000723D2B208F098FBE3B29D42E3D8562DA1
:10D4A0008CBF0020012006B0BDE8F0814899002023
:10D4B000344F00202DE9F04F814687B0007808F006
:10D4C0006BFDC4B2C0F3072B5C45ADF80C0069D20C
:10D4D000DFF8F0A037499AF80430B1F80080364EF2
:10D4E000364DDB0803FB0888C8F30721C1F380131E
:10D4F0005B424B40CF4311F0400FC3F3011307F0E1
:10D500000F0701F00F0107F1010748F3072808BFD3
:10D510000F4606EB43062544294B04EB440119440E
:10D52000032204A811F068FA7278337812FB07F22C
:10D5300003EB1213DBB25A42D2B233EA280328BFFC
:10D5400013465A4213F0800FD2B218BF13465B0045
:10D550009AF80320DBB202FB03331B128DF8123062
:10D56000049806F0F1FD15F8012F99F801308DF8B7
:10D570001400C0F30721C0F3074C1A428DF81510B0
:10D580008DF816C0214609D05FFA8CF200929DF802
:10D590001530C2B299F8030008F016FB0134E3B26B
:10D5A0009B45B9D8BBF1560F8CBF0020012007B0B6
:10D5B000BDE8F08FA8990020C4F60108912700204B
:10D5C000344F0020489900202DE9F04F804689B063
:10D5D000007808F0E1FCC4B2C0F3072A5445ADF866
:10D5E000140071D2DFF804913C4E99F804303C4DA0
:10D5F0000133FF2B28BFFF234FF6FF7C2644BCFBE3
:10D60000F3FC1FFA8CF7CDF80CC003E00134E0B254
:10D61000824559D916F8012F98F801301A42F5D0F1
:10D620002B78013B190657D42E4ADBB2D118E0B251
:10D6300002E0013B1A064FD411F8012D8242F8D1C5
:10D6400005EB430292F819C0927E4CEA0222BA42DC
:10D65000EFD299F804300133FF2B28BFFF2303FBDF
:10D660000222214B04EB440119444FEA222B06A865
:10D67000032211F0C1F9BBF1FF0FD8BF6FEA0B0312
:10D6800099F80320D4BFDBB2002302FB03331B1243
:10D690008DF81A30069806F057FDC0F307438DF851
:10D6A0001E30DBB20093C0F307238DF81C00C2B21A
:10D6B0008DF81D3098F803002146DBB2013408F0E4
:10D6C00083FAE0B28245A5D8BAF1560F8CBF00208C
:10D6D000012009B0BDE8F08F039ABAE79127002036
:10D6E000AC990020BE990020344F002048990020BA
:10D6F0002DE9F04F8FB0144609900878059108F095
:10D700004BFCC3B2C0F3072C6345ADF82C0080F08E
:10D71000DA80734E734FCDF818C0984606F20D129A
:10D720004244714B049208EB480297F800B0CDF8E0
:10D7300008B0D31806EB48060393C1460CE0039BE0
:10D74000069A033309F1010903935FFA89F39A42B8
:10D7500006F1020640F2B680049B13F8012F0493F1
:10D76000059B5B781A42EAD0032260490CA811F0AD
:10D7700043F9029A099B9A4240F2AD801D4607EB9D
:10D7800003085B4BCDF81C904FF0000A089318F883
:10D79000013F96F8612098F80810521A96F8601028
:10D7A00002FB02FBC91A01FB01BB1FFA8BFBBBF199
:10D7B000010F40F28480BBF5F75F9DBF4FEA5B1E0F
:10D7C0000EF1080E5FFA8EFE4FF0FF0E012006E00C
:10D7D000BCF1FF0F1FD00133D8B2704519D800EB50
:10D7E0000E0C4FEA6C0C0CFB0CF91FFA89F9D945A9
:10D7F0006346EDD9013B5FFA83FE0EEB00035B103D
:10D8000003FB03FC70451FFA8CFC02D8DC45F1D801
:10D81000E1E7431EDBB2364807EB450E90F804C043
:10D820009EF819009EF81AE08DF832A00CF1010C58
:10D83000BCF1FF0F28BF4FF0FF0C40EA0E200CFB9D
:10D840000000C0F30F2000900C98A0470135029A09
:10D850008DF83000EBB2C0F3074A9A42C0F30720BC
:10D860008DF832A08DF831005FFA8AFA8FD8DDF892
:10D870001C90089BDB78039A03FB0AAA4FEA2A2331
:10D880008DF8323013788DF8303053788DF8313090
:10D890000C9806F059FCC0F3074305998DF8363013
:10D8A000DBB20093C0F307238DF83400C2B28DF8C9
:10D8B0003530C878DBB2494608F086F93FE75FFAB1
:10D8C0008BF3A8E79446BCF1560F8CBF00200120D3
:10D8D0000FB0BDE8F08F064B4FF0000ACAE700BF5B
:10D8E00084260020AC990020344F00204999002064
:10D8F000489900200E4B1B78013B032B16D8DFE81C
